{
  "transactions": [
    {
      "hash": "0x7c842a29165fb3fed13f2dea4949bb45a6ece4b7e30787f66f833f73540f4215",
      "transactionType": "CALL",
      "contractName": null,
      "contractAddress": "0xd48671d86121d9a15a0f3d661362617d2eeb83e1",
      "function": "mint(address,uint256)",
      "arguments": [
        "0x5548b799EFA78555bb64c6D2497d59bE8cc63eaB",
        "100000000000000000000"
      ],
      "transaction": {
        "from": "0x5548b799efa78555bb64c6d2497d59be8cc63eab",
        "to": "0xd48671d86121d9a15a0f3d661362617d2eeb83e1",
        "gas": "0x10d61",
        "value": "0x0",
        "input": "0x40c10f190000000000000000000000005548b799efa78555bb64c6d2497d59be8cc63eab0000000000000000000000000000000000000000000000056bc75e2d63100000",
        "nonce": "0x68",
        "chainId": "0xaa36a7"
      },
      "additionalContracts": [],
      "isFixedGasLimit": false
    }
  ],
  "receipts": [
    {
      "status": "0x1",
      "cumulativeGasUsed": "0xc21315",
      "logs": [
        {
          "address": "0xd48671d86121d9a15a0f3d661362617d2eeb83e1",
          "topics": [
            "0xddf252ad1be2c89b69c2b068fc378daa952ba7f163c4a11628f55a4df523b3ef",
            "0x0000000000000000000000000000000000000000000000000000000000000000",
            "0x0000000000000000000000005548b799efa78555bb64c6d2497d59be8cc63eab"
          ],
          "data": "0x0000000000000000000000000000000000000000000000056bc75e2d63100000",
          "blockHash": "0x4b92ef5dc6576872c7c4c06be3047cc02bfc7b72dde5f69fea941443d02c9b50",
          "blockNumber": "0x99addb",
          "blockTimestamp": "0x696cfbb8",
          "transactionHash": "0x7c842a29165fb3fed13f2dea4949bb45a6ece4b7e30787f66f833f73540f4215",
          "transactionIndex": "0x55",
          "logIndex": "0xa3",
          "removed": false
        }
      ],
      "logsBloom": "0x00000000000000000000000000000000000000000000000000000000000000000000000000000000000000000000000000000080000000000000000000000000000000000000000000200008000000000000000000000000000000000000000000000000020000000000000000000802000000000000000000000010000000000000000000000000000000000000000000000000000000000000000000000000000000400000000000080000000000000000000000000010000000000000000000000002000000000000000000000000000000000000000000000000000020000000000000000000000000000000000000000000000000000000000000000000",
      "type": "0x2",
      "transactionHash": "0x7c842a29165fb3fed13f2dea4949bb45a6ece4b7e30787f66f833f73540f4215",
      "transactionIndex": "0x55",
      "blockHash": "0x4b92ef5dc6576872c7c4c06be3047cc02bfc7b72dde5f69fea941443d02c9b50",
      "blockNumber": "0x99addb",
      "gasUsed": "0xb831",
      "effectiveGasPrice": "0x3cdf378d",
      "from": "0x5548b799efa78555bb64c6d2497d59be8cc63eab",
      "to": "0xd48671d86121d9a15a0f3d661362617d2eeb83e1",
      "contractAddress": null
    }
  ],
  "libraries": [],
  "pending": [],
  "returns": {},
  "timestamp": 1768750010032,
  "chain": 11155111,
  "commit": null
}