{
  "transactions": [
    {
      "hash": "0x7b32ba5c65a5c975f59f9def1f622ccf2c219e783a1c05812e4fbce559faaaba",
      "transactionType": "CALL",
      "contractName": null,
      "contractAddress": "0xd48671d86121d9a15a0f3d661362617d2eeb83e1",
      "function": "mint(address,uint256)",
      "arguments": [
        "0x5548b799EFA78555bb64c6D2497d59bE8cc63eaB",
        "100000000000000000000"
      ],
      "transaction": {
        "from": "0x5548b799efa78555bb64c6d2497d59be8cc63eab",
        "to": "0xd48671d86121d9a15a0f3d661362617d2eeb83e1",
        "gas": "0x1aac0",
        "value": "0x0",
        "input": "0x40c10f190000000000000000000000005548b799efa78555bb64c6d2497d59be8cc63eab0000000000000000000000000000000000000000000000056bc75e2d63100000",
        "nonce": "0x65",
        "chainId": "0xaa36a7"
      },
      "additionalContracts": [],
      "isFixedGasLimit": false
    }
  ],
  "receipts": [
    {
      "status": "0x1",
      "cumulativeGasUsed": "0x3f97aa",
      "logs": [
        {
          "address": "0xd48671d86121d9a15a0f3d661362617d2eeb83e1",
          "topics": [
            "0xddf252ad1be2c89b69c2b068fc378daa952ba7f163c4a11628f55a4df523b3ef",
            "0x0000000000000000000000000000000000000000000000000000000000000000",
            "0x0000000000000000000000005548b799efa78555bb64c6d2497d59be8cc63eab"
          ],
          "data": "0x0000000000000000000000000000000000000000000000056bc75e2d63100000",
          "blockHash": "0x725cadd978cc625f88d22e4dbd31d9c8ee9867c33094bea099b6f0dc97ae634d",
          "blockNumber": "0x99acd2",
          "blockTimestamp": "0x696cef4c",
          "transactionHash": "0x7b32ba5c65a5c975f59f9def1f622ccf2c219e783a1c05812e4fbce559faaaba",
          "transactionIndex": "0x2d",
          "logIndex": "0x4e",
          "removed": false
        }
      ],
      "logsBloom": "0x00000000000000000000000000000000000000000000000000000000000000000000000000000000000000000000000000000080000000000000000000000000000000000000000000200008000000000000000000000000000000000000000000000000020000000000000000000802000000000000000000000010000000000000000000000000000000000000000000000000000000000000000000000000000000400000000000080000000000000000000000000010000000000000000000000002000000000000000000000000000000000000000000000000000020000000000000000000000000000000000000000000000000000000000000000000",
      "type": "0x2",
      "transactionHash": "0x7b32ba5c65a5c975f59f9def1f622ccf2c219e783a1c05812e4fbce559faaaba",
      "transactionIndex": "0x2d",
      "blockHash": "0x725cadd978cc625f88d22e4dbd31d9c8ee9867c33094bea099b6f0dc97ae634d",
      "blockNumber": "0x99acd2",
      "gasUsed": "0x134f6",
      "effectiveGasPrice": "0x3e682fdc",
      "from": "0x5548b799efa78555bb64c6d2497d59be8cc63eab",
      "to": "0xd48671d86121d9a15a0f3d661362617d2eeb83e1",
      "contractAddress": null
    }
  ],
  "libraries": [],
  "pending": [],
  "returns": {},
  "timestamp": 1768746829177,
  "chain": 11155111,
  "commit": null
}